{
  "contractName": "Checker",
  "abi": [
    {
      "inputs": [
        {
          "internalType": "address",
          "name": "token",
          "type": "address"
        }
      ],
      "name": "name",
      "outputs": [
        {
          "internalType": "string",
          "name": "name",
          "type": "string"
        }
      ],
      "stateMutability": "view",
      "type": "function",
      "constant": true
    },
    {
      "inputs": [
        {
          "internalType": "address",
          "name": "token",
          "type": "address"
        }
      ],
      "name": "symbol",
      "outputs": [
        {
          "internalType": "string",
          "name": "symbol",
          "type": "string"
        }
      ],
      "stateMutability": "view",
      "type": "function",
      "constant": true
    },
    {
      "inputs": [
        {
          "internalType": "address",
          "name": "token",
          "type": "address"
        }
      ],
      "name": "totalSupply",
      "outputs": [
        {
          "internalType": "uint256",
          "name": "",
          "type": "uint256"
        }
      ],
      "stateMutability": "view",
      "type": "function",
      "constant": true
    }
  ],
  "bytecode": "0x608060405234801561001057600080fd5b5061034c806100206000396000f3fe608060405234801561001057600080fd5b50600436106100415760003560e01c80630198489214610046578063a86e3576146100e1578063e4dc2aa414610107575b600080fd5b61006c6004803603602081101561005c57600080fd5b50356001600160a01b031661013f565b6040805160208082528351818301528351919283929083019185019080838360005b838110156100a657818101518382015260200161008e565b50505050905090810190601f1680156100d35780820380516001836020036101000a031916815260200191505b509250505060405180910390f35b61006c600480360360208110156100f757600080fd5b50356001600160a01b031661026e565b61012d6004803603602081101561011d57600080fd5b50356001600160a01b03166102a9565b60408051918252519081900360200190f35b6060816001600160a01b03166306fdde036040518163ffffffff1660e01b815260040160006040518083038186803b15801561017a57600080fd5b505afa15801561018e573d6000803e3d6000fd5b505050506040513d6000823e601f3d908101601f1916820160405260208110156101b757600080fd5b81019080805160405193929190846401000000008211156101d757600080fd5b9083019060208201858111156101ec57600080fd5b825164010000000081118282018810171561020657600080fd5b82525081516020918201929091019080838360005b8381101561023357818101518382015260200161021b565b50505050905090810190601f1680156102605780820380516001836020036101000a031916815260200191505b506040525050509050919050565b6060816001600160a01b03166395d89b416040518163ffffffff1660e01b815260040160006040518083038186803b15801561017a57600080fd5b6000816001600160a01b03166318160ddd6040518163ffffffff1660e01b815260040160206040518083038186803b1580156102e457600080fd5b505afa1580156102f8573d6000803e3d6000fd5b505050506040513d602081101561030e57600080fd5b50519291505056fea26469706673582212202e8a0c3af65d368fec4fa1e3a5eab9bf3de9135aa8d953890ab48f4212a9207c64736f6c63430006060033",
  "immutableReferences": {},
  "source": "pragma solidity =0.6.6;\r\n\r\nimport \"@openZeppelin/contracts/presets/ERC20PresetMinterPauser.sol\";\r\n\r\ncontract Checker {\r\n    function name(address token) external view returns (string memory name) {\r\n        name = ERC20PresetMinterPauser(token).name();\r\n    }\r\n\r\n    function symbol(address token)\r\n        external\r\n        view\r\n        returns (string memory symbol)\r\n    {\r\n        symbol = ERC20PresetMinterPauser(token).symbol();\r\n    }\r\n\r\n    function totalSupply(address token) public view returns (uint256) {\r\n        return ERC20PresetMinterPauser(token).totalSupply();\r\n    }\r\n}\r\n",
  "sourcePath": "D:\\Flashloan\\CODE\\Flashloans\\contracts\\Checker.sol",
  "compiler": {
    "name": "solc",
    "version": "0.6.6+commit.6c089d02.Emscripten.clang"
  },
  "schemaVersion": "3.4.3",
  "updatedAt": "2022-01-10T16:02:24.664Z",
  "networkType": "ethereum",
  "devdoc": {
    "methods": {}
  },
  "userdoc": {
    "methods": {}
  }
}