{
  "contractName": "HandleToken",
  "abi": [
    {
      "inputs": [
        {
          "internalType": "address",
          "name": "",
          "type": "address"
        }
      ],
      "name": "listTokens",
      "outputs": [
        {
          "internalType": "contract myToken",
          "name": "",
          "type": "address"
        }
      ],
      "stateMutability": "view",
      "type": "function",
      "constant": true
    },
    {
      "inputs": [
        {
          "internalType": "address",
          "name": "",
          "type": "address"
        }
      ],
      "name": "owners",
      "outputs": [
        {
          "internalType": "address",
          "name": "",
          "type": "address"
        }
      ],
      "stateMutability": "view",
      "type": "function",
      "constant": true
    },
    {
      "inputs": [],
      "name": "tokenInstance",
      "outputs": [
        {
          "internalType": "contract myToken",
          "name": "",
          "type": "address"
        }
      ],
      "stateMutability": "view",
      "type": "function",
      "constant": true
    },
    {
      "inputs": [
        {
          "internalType": "string",
          "name": "name",
          "type": "string"
        },
        {
          "internalType": "string",
          "name": "symbol",
          "type": "string"
        }
      ],
      "name": "createToken",
      "outputs": [],
      "stateMutability": "nonpayable",
      "type": "function"
    },
    {
      "inputs": [
        {
          "internalType": "address",
          "name": "token",
          "type": "address"
        },
        {
          "internalType": "address",
          "name": "to",
          "type": "address"
        },
        {
          "internalType": "uint256",
          "name": "amount",
          "type": "uint256"
        }
      ],
      "name": "mint",
      "outputs": [],
      "stateMutability": "nonpayable",
      "type": "function"
    },
    {
      "inputs": [],
      "name": "getToken",
      "outputs": [
        {
          "internalType": "address",
          "name": "",
          "type": "address"
        }
      ],
      "stateMutability": "view",
      "type": "function",
      "constant": true
    },
    {
      "inputs": [
        {
          "internalType": "address",
          "name": "token",
          "type": "address"
        }
      ],
      "name": "getOwner",
      "outputs": [
        {
          "internalType": "address",
          "name": "",
          "type": "address"
        }
      ],
      "stateMutability": "view",
      "type": "function",
      "constant": true
    }
  ],
  "bytecode": "0x608060405234801561001057600080fd5b50612212806100206000396000f3fe60806040523480156200001157600080fd5b5060043610620000885760003560e01c8063658030b31162000063578063658030b314620000df5780639068b2aa14620000e9578063c6c3bbe61462000100578063fa54416114620001175762000088565b8063022914a7146200008d57806321df0da714620000bc5780632f2f2d5614620000c6575b600080fd5b620000a46200009e36600462000382565b6200012e565b604051620000b39190620004ad565b60405180910390f35b620000a462000149565b620000dd620000d7366004620003f7565b62000158565b005b620000a4620001e9565b620000a4620000fa36600462000382565b620001f8565b620000dd62000111366004620003b2565b62000213565b620000a46200012836600462000382565b620002d4565b6002602052600090815260409020546001600160a01b031681565b6000546001600160a01b031690565b81816040516200016890620002f2565b62000175929190620004da565b604051809103906000f08015801562000192573d6000803e3d6000fd5b50600080546001600160a01b039283166001600160a01b0319918216178083558316808352600160209081526040808520805485169093179092558354909416835260029093529190208054909116331790555050565b6000546001600160a01b031681565b6001602052600090815260409020546001600160a01b031681565b6001600160a01b03838116600090815260026020526040902054163314620002585760405162461bcd60e51b81526004016200024f906200050c565b60405180910390fd5b6001600160a01b03808416600090815260016020526040908190205490516340c10f1960e01b81529116906340c10f19906200029b9085908590600401620004c1565b600060405180830381600087803b158015620002b657600080fd5b505af1158015620002cb573d6000803e3d6000fd5b50505050505050565b6001600160a01b039081166000908152600260205260409020541690565b611c73806200056a83390190565b600082601f83011262000311578081fd5b813567ffffffffffffffff8082111562000329578283fd5b604051601f8301601f1916810160200182811182821017156200034a578485fd5b6040528281529250828483016020018610156200036657600080fd5b8260208601602083013760006020848301015250505092915050565b60006020828403121562000394578081fd5b81356001600160a01b0381168114620003ab578182fd5b9392505050565b600080600060608486031215620003c7578182fd5b8335620003d48162000550565b92506020840135620003e68162000550565b929592945050506040919091013590565b600080604083850312156200040a578182fd5b823567ffffffffffffffff8082111562000422578384fd5b620004308683870162000300565b9350602085013591508082111562000446578283fd5b50620004558582860162000300565b9150509250929050565b60008151808452815b81811015620004865760208185018101518683018201520162000468565b81811115620004985782602083870101525b50601f01601f19169290920160200192915050565b6001600160a01b0391909116815260200190565b6001600160a01b03929092168252602082015260400190565b600060408252620004ef60408301856200045f565b82810360208401526200050381856200045f565b95945050505050565b60208082526024908201527f4f776e61626c653a20596f7520617265206e6f7420746865206f776e65722c20604082015263213cb29760e11b606082015260800190565b6001600160a01b03811681146200056657600080fd5b5056fe60806040523480156200001157600080fd5b5060405162001c7338038062001c73833981016040819052620000349162000371565b8181818181600490805190602001906200005092919062000228565b5080516200006690600590602084019062000228565b50506006805461ff001960ff1990911660121716905550620000a56000620000966001600160e01b03620000ef16565b6001600160e01b03620000f416565b620000d3604051620000b790620003ef565b604051908190039020620000966001600160e01b03620000ef16565b620000e5604051620000b790620003d8565b5050505062000406565b335b90565b6200010982826001600160e01b036200010d16565b5050565b6000828152602081815260409091206200013291839062000ea16200018f821b17901c565b1562000109576200014b6001600160e01b03620000ef16565b6001600160a01b0316816001600160a01b0316837f2f8788117e7eff1d82e926ec794901d17c78024a50270940304540a733656f0d60405160405180910390a45050565b6000620001af836001600160a01b0384166001600160e01b03620001b816565b90505b92915050565b6000620001cf83836001600160e01b036200021016565b6200020757508154600181810184556000848152602080822090930184905584548482528286019093526040902091909155620001b2565b506000620001b2565b60009081526001919091016020526040902054151590565b828054600181600116156101000203166002900490600052602060002090601f016020900481019282601f106200026b57805160ff19168380011785556200029b565b828001600101855582156200029b579182015b828111156200029b5782518255916020019190600101906200027e565b50620002a9929150620002ad565b5090565b620000f191905b80821115620002a95760008155600101620002b4565b600082601f830112620002db578081fd5b81516001600160401b0380821115620002f2578283fd5b6040516020601f8401601f191682018101838111838210171562000314578586fd5b806040525081945083825286818588010111156200033157600080fd5b600092505b8383101562000355578583018101518284018201529182019162000336565b83831115620003675760008185840101525b5050505092915050565b6000806040838503121562000384578182fd5b82516001600160401b03808211156200039b578384fd5b620003a986838701620002ca565b93506020850151915080821115620003bf578283fd5b50620003ce85828601620002ca565b9150509250929050565b6a5041555345525f524f4c4560a81b8152600b0190565b6a4d494e5445525f524f4c4560a81b8152600b0190565b61185d80620004166000396000f3fe608060405234801561001057600080fd5b50600436106101a95760003560e01c806370a08231116100f9578063a457c2d711610097578063d539139311610071578063d539139314610357578063d547741f1461035f578063dd62ed3e14610372578063e63ab1e914610385576101a9565b8063a457c2d71461031e578063a9059cbb14610331578063ca15c87314610344576101a9565b80639010d07c116100d35780639010d07c146102db57806391d14854146102fb57806395d89b411461030e578063a217fddf14610316576101a9565b806370a08231146102ad57806379cc6790146102c05780638456cb59146102d3576101a9565b8063313ce567116101665780633f4ba83a116101405780633f4ba83a1461027757806340c10f191461027f57806342966c68146102925780635c975abb146102a5576101a9565b8063313ce5671461023c57806336568abe146102515780633950935114610264576101a9565b806306fdde03146101ae578063095ea7b3146101cc57806318160ddd146101ec57806323b872dd14610201578063248a9ca3146102145780632f2ff15d14610227575b600080fd5b6101b661038d565b6040516101c39190611222565b60405180910390f35b6101df6101da36600461113a565b610423565b6040516101c3919061120e565b6101f4610441565b6040516101c39190611219565b6101df61020f3660046110fa565b610447565b6101f4610222366004611164565b6104d4565b61023a61023536600461117c565b6104e9565b005b61024461053a565b6040516101c3919061174b565b61023a61025f36600461117c565b610543565b6101df61027236600461113a565b610585565b61023a6105d9565b61023a61028d36600461113a565b61061e565b61023a6102a0366004611164565b610653565b6101df610667565b6101f46102bb3660046110ab565b610675565b61023a6102ce36600461113a565b610690565b61023a6106eb565b6102ee6102e93660046111ab565b61071e565b6040516101c391906111fa565b6101df61030936600461117c565b610743565b6101b6610761565b6101f46107c2565b6101df61032c36600461113a565b6107c7565b6101df61033f36600461113a565b610835565b6101f4610352366004611164565b610849565b6101f4610860565b61023a61036d36600461117c565b610877565b6101f46103803660046110c6565b6108b1565b6101f46108dc565b60048054604080516020601f60026000196101006001881615020190951694909404938401819004810282018101909252828152606093909290918301828280156104195780601f106103ee57610100808354040283529160200191610419565b820191906000526020600020905b8154815290600101906020018083116103fc57829003601f168201915b5050505050905090565b60006104376104306108e8565b84846108ec565b5060015b92915050565b60035490565b60006104548484846109a0565b6104ca846104606108e8565b6104c5856040518060600160405280602881526020016117b7602891396001600160a01b038a1660009081526002602052604081209061049e6108e8565b6001600160a01b03168152602081019190915260400160002054919063ffffffff610ac116565b6108ec565b5060019392505050565b60009081526020819052604090206002015490565b600082815260208190526040902060020154610507906103096108e8565b61052c5760405162461bcd60e51b8152600401610523906112fa565b60405180910390fd5b6105368282610aed565b5050565b60065460ff1690565b61054b6108e8565b6001600160a01b0316816001600160a01b03161461057b5760405162461bcd60e51b81526004016105239061167b565b6105368282610b5c565b60006104376105926108e8565b846104c585600260006105a36108e8565b6001600160a01b03908116825260208083019390935260409182016000908120918c16815292529020549063ffffffff610bcb16565b6105f86040516105e8906111cc565b60405180910390206103096108e8565b6106145760405162461bcd60e51b815260040161052390611377565b61061c610bf0565b565b61062d6040516105e8906111e3565b6106495760405162461bcd60e51b8152600401610523906114fe565b6105368282610c5f565b61066461065e6108e8565b82610d2b565b50565b600654610100900460ff1690565b6001600160a01b031660009081526001602052604090205490565b60006106c8826040518060600160405280602481526020016117df602491396106bb866103806108e8565b919063ffffffff610ac116565b90506106dc836106d66108e8565b836108ec565b6106e68383610d2b565b505050565b6106fa6040516105e8906111cc565b6107165760405162461bcd60e51b81526004016105239061161e565b61061c610e0d565b600082815260208190526040812061073c908363ffffffff610e6a16565b9392505050565b600082815260208190526040812061073c908363ffffffff610e7616565b60058054604080516020601f60026000196101006001881615020190951694909404938401819004810282018101909252828152606093909290918301828280156104195780601f106103ee57610100808354040283529160200191610419565b600081565b60006104376107d46108e8565b846104c58560405180606001604052806025815260200161180360259139600260006107fe6108e8565b6001600160a01b03908116825260208083019390935260409182016000908120918d1681529252902054919063ffffffff610ac116565b60006104376108426108e8565b84846109a0565b600081815260208190526040812061043b90610e8b565b60405161086c906111e3565b604051809103902081565b600082815260208190526040902060020154610895906103096108e8565b61057b5760405162461bcd60e51b815260040161052390611484565b6001600160a01b03918216600090815260026020908152604080832093909416825291909152205490565b60405161086c906111cc565b3390565b6001600160a01b0383166109125760405162461bcd60e51b8152600401610523906115da565b6001600160a01b0382166109385760405162461bcd60e51b8152600401610523906113d4565b6001600160a01b0380841660008181526002602090815260408083209487168084529490915290819020849055517f8c5be1e5ebec7d5bd14f71427d1e84f3dd0314c0f7b2291e5b200ac8c7c3b92590610993908590611219565b60405180910390a3505050565b6001600160a01b0383166109c65760405162461bcd60e51b815260040161052390611595565b6001600160a01b0382166109ec5760405162461bcd60e51b8152600401610523906112b7565b6109f7838383610e96565b610a3a81604051806060016040528060268152602001611791602691396001600160a01b038616600090815260016020526040902054919063ffffffff610ac116565b6001600160a01b038085166000908152600160205260408082209390935590841681522054610a6f908263ffffffff610bcb16565b6001600160a01b0380841660008181526001602052604090819020939093559151908516907fddf252ad1be2c89b69c2b068fc378daa952ba7f163c4a11628f55a4df523b3ef90610993908590611219565b60008184841115610ae55760405162461bcd60e51b81526004016105239190611222565b505050900390565b6000828152602081905260409020610b0b908263ffffffff610ea116565b1561053657610b186108e8565b6001600160a01b0316816001600160a01b0316837f2f8788117e7eff1d82e926ec794901d17c78024a50270940304540a733656f0d60405160405180910390a45050565b6000828152602081905260409020610b7a908263ffffffff610eb616565b1561053657610b876108e8565b6001600160a01b0316816001600160a01b0316837ff6391f5c32d9c69d2a47ea670b442974b53935d1edc7fd64eb21e047a839171b60405160405180910390a45050565b60008282018381101561073c5760405162461bcd60e51b815260040161052390611416565b610bf8610667565b610c145760405162461bcd60e51b815260040161052390611349565b6006805461ff00191690557f5db9ee0a495bf2e6ff9c91a7834c1ba4fdd244a5e8aa4e537bd38aeae4b073aa610c486108e8565b604051610c5591906111fa565b60405180910390a1565b6001600160a01b038216610c855760405162461bcd60e51b8152600401610523906116ca565b610c9160008383610e96565b600354610ca4908263ffffffff610bcb16565b6003556001600160a01b038216600090815260016020526040902054610cd0908263ffffffff610bcb16565b6001600160a01b0383166000818152600160205260408082209390935591519091907fddf252ad1be2c89b69c2b068fc378daa952ba7f163c4a11628f55a4df523b3ef90610d1f908590611219565b60405180910390a35050565b6001600160a01b038216610d515760405162461bcd60e51b815260040161052390611554565b610d5d82600083610e96565b610da08160405180606001604052806022815260200161176f602291396001600160a01b038516600090815260016020526040902054919063ffffffff610ac116565b6001600160a01b038316600090815260016020526040902055600354610dcc908263ffffffff610ecb16565b6003556040516000906001600160a01b038416907fddf252ad1be2c89b69c2b068fc378daa952ba7f163c4a11628f55a4df523b3ef90610d1f908590611219565b610e15610667565b15610e325760405162461bcd60e51b8152600401610523906114d4565b6006805461ff0019166101001790557f62e78cea01bee320cd4e420270b5ea74000d11b0c9f74754ebdbfc544b05a258610c486108e8565b600061073c8383610ef3565b600061073c836001600160a01b038416610f38565b600061043b82610f50565b6106e6838383610f54565b600061073c836001600160a01b038416610f84565b600061073c836001600160a01b038416610fce565b600082821115610eed5760405162461bcd60e51b81526004016105239061144d565b50900390565b81546000908210610f165760405162461bcd60e51b815260040161052390611275565b826000018281548110610f2557fe5b9060005260206000200154905092915050565b60009081526001919091016020526040902054151590565b5490565b610f5f8383836106e6565b610f67610667565b156106e65760405162461bcd60e51b815260040161052390611701565b6000610f908383610f38565b610fc65750815460018181018455600084815260208082209093018490558454848252828601909352604090209190915561043b565b50600061043b565b6000818152600183016020526040812054801561108a578354600019808301919081019060009087908390811061100157fe5b906000526020600020015490508087600001848154811061101e57fe5b60009182526020808320909101929092558281526001898101909252604090209084019055865487908061104e57fe5b6001900381819060005260206000200160009055905586600101600087815260200190815260200160002060009055600194505050505061043b565b600091505061043b565b80356001600160a01b038116811461043b57600080fd5b6000602082840312156110bc578081fd5b61073c8383611094565b600080604083850312156110d8578081fd5b6110e28484611094565b91506110f18460208501611094565b90509250929050565b60008060006060848603121561110e578081fd5b833561111981611759565b9250602084013561112981611759565b929592945050506040919091013590565b6000806040838503121561114c578182fd5b6111568484611094565b946020939093013593505050565b600060208284031215611175578081fd5b5035919050565b6000806040838503121561118e578182fd5b8235915060208301356111a081611759565b809150509250929050565b600080604083850312156111bd578182fd5b50508035926020909101359150565b6a5041555345525f524f4c4560a81b8152600b0190565b6a4d494e5445525f524f4c4560a81b8152600b0190565b6001600160a01b0391909116815260200190565b901515815260200190565b90815260200190565b6000602080835283518082850152825b8181101561124e57858101830151858201604001528201611232565b8181111561125f5783604083870101525b50601f01601f1916929092016040019392505050565b60208082526022908201527f456e756d657261626c655365743a20696e646578206f7574206f6620626f756e604082015261647360f01b606082015260800190565b60208082526023908201527f45524332303a207472616e7366657220746f20746865207a65726f206164647260408201526265737360e81b606082015260800190565b6020808252602f908201527f416363657373436f6e74726f6c3a2073656e646572206d75737420626520616e60408201526e0818591b5a5b881d1bc819dc985b9d608a1b606082015260800190565b60208082526014908201527314185d5cd8589b194e881b9bdd081c185d5cd95960621b604082015260600190565b60208082526039908201527f45524332305072657365744d696e7465725061757365723a206d75737420686160408201527f76652070617573657220726f6c6520746f20756e706175736500000000000000606082015260800190565b60208082526022908201527f45524332303a20617070726f766520746f20746865207a65726f206164647265604082015261737360f01b606082015260800190565b6020808252601b908201527f536166654d6174683a206164646974696f6e206f766572666c6f770000000000604082015260600190565b6020808252601e908201527f536166654d6174683a207375627472616374696f6e206f766572666c6f770000604082015260600190565b60208082526030908201527f416363657373436f6e74726f6c3a2073656e646572206d75737420626520616e60408201526f2061646d696e20746f207265766f6b6560801b606082015260800190565b60208082526010908201526f14185d5cd8589b194e881c185d5cd95960821b604082015260600190565b60208082526036908201527f45524332305072657365744d696e7465725061757365723a206d7573742068616040820152751d99481b5a5b9d195c881c9bdb19481d1bc81b5a5b9d60521b606082015260800190565b60208082526021908201527f45524332303a206275726e2066726f6d20746865207a65726f206164647265736040820152607360f81b606082015260800190565b60208082526025908201527f45524332303a207472616e736665722066726f6d20746865207a65726f206164604082015264647265737360d81b606082015260800190565b60208082526024908201527f45524332303a20617070726f76652066726f6d20746865207a65726f206164646040820152637265737360e01b606082015260800190565b60208082526037908201527f45524332305072657365744d696e7465725061757365723a206d75737420686160408201527f76652070617573657220726f6c6520746f207061757365000000000000000000606082015260800190565b6020808252602f908201527f416363657373436f6e74726f6c3a2063616e206f6e6c792072656e6f756e636560408201526e103937b632b9903337b91039b2b63360891b606082015260800190565b6020808252601f908201527f45524332303a206d696e7420746f20746865207a65726f206164647265737300604082015260600190565b6020808252602a908201527f45524332305061757361626c653a20746f6b656e207472616e736665722077686040820152691a5b19481c185d5cd95960b21b606082015260800190565b60ff91909116815260200190565b6001600160a01b038116811461066457600080fdfe45524332303a206275726e20616d6f756e7420657863656564732062616c616e636545524332303a207472616e7366657220616d6f756e7420657863656564732062616c616e636545524332303a207472616e7366657220616d6f756e74206578636565647320616c6c6f77616e636545524332303a206275726e20616d6f756e74206578636565647320616c6c6f77616e636545524332303a2064656372656173656420616c6c6f77616e63652062656c6f77207a65726fa2646970667358221220e03264dfa7e2f27d921b27af1b2846c68fe27a1eb898bb76bfb36c92b4254cee64736f6c63430006060033a26469706673582212204c3c0ce1f90adb2e347def26eb02e6019942851f2a0822f2acd8256837590b3f64736f6c63430006060033",
  "immutableReferences": {},
  "source": "pragma solidity =0.6.6;\r\npragma experimental ABIEncoderV2;\r\n\r\nimport \"@openZeppelin/contracts/presets/ERC20PresetMinterPauser.sol\";\r\n\r\ncontract myToken is ERC20PresetMinterPauser {\r\n    constructor(string memory name, string memory symbol)\r\n        public\r\n        ERC20PresetMinterPauser(name, symbol)\r\n    {}\r\n}\r\n\r\ncontract HandleToken {\r\n    myToken public tokenInstance;\r\n    mapping(address => myToken) public listTokens;\r\n    mapping(address => address) public owners;\r\n\r\n    function createToken(string memory name, string memory symbol) public {\r\n        tokenInstance = new myToken(name, symbol);\r\n        listTokens[address(tokenInstance)] = tokenInstance;\r\n        owners[address(tokenInstance)] = msg.sender;\r\n    }\r\n\r\n    function mint(\r\n        address token,\r\n        address to,\r\n        uint256 amount\r\n    ) public {\r\n        require(\r\n            msg.sender == owners[token],\r\n            \"Ownable: You are not the owner, Bye.\"\r\n        );\r\n        listTokens[token].mint(to, amount);\r\n    }\r\n\r\n    function getToken() public view returns (address) {\r\n        return address(tokenInstance);\r\n    }\r\n\r\n    function getOwner(address token) public view returns (address) {\r\n        return (address(owners[token]));\r\n    }\r\n}\r\n",
  "sourcePath": "D:\\Flashloan\\CODE\\Flashloans\\contracts\\HandleToken.sol",
  "compiler": {
    "name": "solc",
    "version": "0.6.6+commit.6c089d02.Emscripten.clang"
  },
  "schemaVersion": "3.4.3",
  "updatedAt": "2022-01-10T16:02:24.662Z",
  "networkType": "ethereum",
  "devdoc": {
    "methods": {}
  },
  "userdoc": {
    "methods": {}
  }
}